:020000000429D1
:10000800FF00030E8301BA000A08B9008A010C1C1C
:100018001528FC308F0017308E000C10A40A031925
:10002800A50A39088A003A0E8300FF0E7F0E0900E0
:0C00380007308312FD00FD0B1F2808009C
:1000440083124208F000F00CF01370089300421879
:0A0054002D2895122E28951608009D
:10005E0082308312FC00DD30FD00FD0B3428FC0BDA
:08006E00342800000000080026
:10007600C33083129F05F0309F05BF309F05F030D7
:1000860083169F0483129F174208F000F00D70102C
:10009600F00D701070089F041F141C209F149F1CE5
:1000A6005628000052281F101E08F100F001831682
:1000B6001E0870048312C3007108C4000030C40413
:0A00C6004308F0004408F1000800B0
:1000D00083121308F000F00D70107008F200951AEA
:0E00E00073287210742872147208F000080061
:1000EE0083169C1C7C2800007728831242088316F6
:1000FE009B008312430883169A009C131C150B0851
:10010E00F0008B1355309D00AA309D009C14F01BFF
:0C011E0092288B1393288B171C110800EB
:10012A008312420883169B009C131C141A08F100C0
:06013A007108F00008004E
:10014000831245084302031DA728440842020318EE
:10015000C0284408FF3CF0004508031C013EFF3C5A
:10016000F1004208F00743080318013EF107700848
:10017000013EF20000300318013E7107F300C82869
:1001800044084202F2004508031C013E4302F3000A
:0A0190007208F0007308F100080087
:10019A00831203132230FC00F801F901FA01FB0172
:1001AA00FC03031903290310FB0CFA0CF90CF80CD5
:1001BA00F30CF20CF10CF00C031CD528FC03031908
:1001CA00F5287408F80775080318750FF9077608F3
:1001DA000318760FFA0777080318770FFB07D92851
:1001EA007408F80775080318750FF90776080318D5
:0E01FA00760FFA0777080318770FFB07080047
:10020800073083129900093083169F0005140516DC
:100218008514851283121F179F17920183160515DF
:1002280063309200831215120F3095003C30C200E3
:1002380022208316051183128C1012156400851272
:10024800C830A600A701A401A501A2012F202F20D4
:10025800640085194B292F202F20C2013B207008EC
:10026800A0007108A100C2012008C30077202F2038
:1002780085160430FB008E30FC001230FD00FD0BAB
:100288004329FC0B4329FB0B43290000851264001A
:100298002F20C201952070088312A20070081F3C0D
:1002A80003185729A20190121012901017308E00CF
:1002B800FC308F000C10AF01B001A001A101AB010F
:1002C800AC01AD01AE0183160C140B178B1783120A
:1002D80010143C30C2002220FF30A800A901AA0156
:1002E800B101B2010230FB008630FC009930FD00FC
:1002F800FD0B7C29FC0B7C29FB0B7C298516023025
:10030800FB008630FC009930FD00FD0B8929FC0BB1
:100318008929FB0B892985126400B501B601B7014B
:10032800B8012408B3002508B4002408C200250831
:10033800C3003108C4003208C500A0207108270294
:10034800031DA829700826020318B0293308B10034
:100358003408B200203085062008B7002108B8000C
:10036800C2013B207008A0007108A1000330C20040
:100378003B207008AF007108B0000130A300C20133
:100388003B207008C0007108C1000330C2003B2048
:100398007008B3007108B40021084102031DD62972
:1003A800200840020318E0294008A0004108A100E5
:1003B8003308AF003408B0002308033A0319E629CC
:1003C800A30AC3292408B3002508B4002408C200DE
:1003D8002508C3003508C4003608C500A02003302E
:1003E8007102031DF929E8307002031C002A330842
:1003F800B5003408B60064002408B3002508B4002A
:100408002408C2002508C3002908C4002A08C5001A
:10041800A02000307102031D132A2830700203182F
:10042800162A95293308A9003408AA002B08BB000E
:100438002C08BC002D08BD002E08BE002F08F000B7
:100448003008F100F201F3012008F4002108F5005A
:10045800F601F701CD207008AB007108AC007208F6
:10046800AD007308AE002108003C031D3D2A20089A
:10047800220203187A2A2E083E06031D4D2A2D084B
:100488003D06031D4D2A2C083C06031D4D2A2B084A
:100498003B06031D542AF430A6000130A700952915
:1004A8003E082E02031D622A3D082D02031D622A02
:1004B8003C082C02031D622A3B082B020318752AEC
:1004C8002C30A6000130A70038082102031D6E2A2F
:1004D800370820020318732AFF30A800742AA809D5
:1004E800792A2C30A6000130A700892AC830A60036
:1004F800A7013C30C2002220FF30A800AB01AC01AC
:10050800AD01AE01A001A101952968207008BF00C6
:10051800280803199D2AC8303F020318982ABF0AE1
:100528003F08C20022209C2AC830C2002220A8010D
:10053800AB2A3F080A3C0318A62ABF033F08C2009B
:100548002220AB2A0A30C2002220FF30A8009529B9
:02055800AC2ACB
:02400E00DC0FC5
:00000001FF
