:020000000D29C8
:10000800FF00030E8301BA000A08B9008A010C1C1C
:100018001528FC308F0017308E000C10A50A031924
:10002800A60A39088A003A0E8300FF0E7F0E0900DF
:0C00380007308312FD00FD0B1F2808009C
:1000440083124408F000F00CF01370089300441875
:0C0054002D2895122E2895161512080074
:1000600082308312FC00DD30FD00FD0B3528FC0BD7
:08007000352800000000080023
:1000780083169C1C412800003C28831244088316E0
:100088009B008312450883169A009C131C150B08C5
:10009800F0008B1355309D00AA309D009C14F01B76
:0C00A80057288B1358288B171C110800D8
:1000B400C33083129F05F0309F05BF309F05F03099
:1000C40083169F0483129F174408F000F00D7010EC
:1000D400F00D701070089F041F141C209F149F1CA7
:1000E4007528000071281F101E08F100F001831606
:1000F4001E0870048312C5007108C6000030C604CF
:0A0104004508F0004608F10008006D
:10010E00831203132230FC00F801F901FA01FB01FE
:10011E00FC030319BD280310FB0CFA0CF90CF80CA8
:10012E00F30CF20CF10CF00C031C8F28FC030319DA
:10013E00AF287408F80775080318750FF9077608C5
:10014E000318760FFA0777080318770FFB07932823
:10015E007408F80775080318750FF9077608031861
:0E016E00760FFA0777080318770FFB070800D3
:10017C008312440883169B009C131C141A08F1006C
:06018C007108F0000800FC
:10019200831247084502031DD0284608440203186B
:1001A200E9284608FF3CF0004708031C013EFF3CDB
:1001B200F1004408F00745080318013EF1077008F2
:1001C200013EF20000300318013E7107F300F128EE
:1001D20046084402F2004708031C013E4502F300B0
:0A01E2007208F0007308F100080035
:1001EC0083121308F000F00D70107008F200951ACD
:0E01FC0001297210022972147208F000080026
:10020A0019308312FD00FD0B0829000000000800C8
:10021A00073083129900093083169F0005140516CA
:10022A008514851283121F179F17920183160515CD
:10023A00633092000F30831295003C30C4002220B4
:10024A008316051183128C10121564008512C830AA
:10025A00A700A801A501A601A101A0013020302014
:10026A0064008519542930203020C4015A207008AE
:10027A00A9007108AA00C4012908C5003C20302041
:10028A0085160430FB008E30FC001230FD00FD0B99
:10029A004C29FC0B4C29FB0B4C29000085126400ED
:1002AA003020C401BE2070088312A00070081F3CD1
:1002BA0003186029A00190121012901017308E00B6
:1002CA00FC308F000C10A301A401A901AA01BB01F3
:1002DA00BC01BD01BE0183160C140B178B178312C8
:1002EA0010143C30C4002220FF30A200AF01B0013C
:1002FA00B101B2010230FB008630FC009930FD00EA
:10030A00FD0B8529FC0B8529FB0B852985160230F7
:10031A00FB008630FC009930FD00FD0B9229FC0B96
:10032A009229FB0B922985126400AB01AC01AD0145
:10033A00AE012508B3002608B4002508C400260823
:10034A00C5003108C6003208C700C9207108280252
:10035A00031DB129700827020318B9293308B1000F
:10036A003408B200203085068519C8290D30FB00F3
:10037A00AF30FC00B630FD00FD0BC129FC0BC129D2
:10038A00FB0BC12900002908AD002A08AE008C1C0D
:10039A00CC290521C4015A207008A9007108AA00B5
:1003AA000330C4005A207008A3007108A400700822
:1003BA00A3007108A400A30DA40D2310A30DA40D7E
:1003CA0023102508B3002608B4002508C40026080F
:1003DA00C5002B08C6002C08C700C92003307102CB
:1003EA00031DF929E8307002031C002A3308AB0008
:1003FA003408AC0064002508B3002608B4002508B8
:10040A00C4002608C5002F08C6003008C700C92046
:10041A0000307102031D132A283070020318162AAD
:10042A009E293308AF003408B0003B08B5003C08E9
:10043A00B6003D08B7003E08B8002308F0002408BB
:10044A00F100F201F3012908F4002A08F500F60187
:10045A00F70187207008BB007108BC007208BD0054
:10046A007308BE007108F9007208FA007308FB00ED
:10047A00FC010A30F8007008F4007108F5007208EF
:10048A00F6007308F70078080319522AF70CF60CDD
:10049A00F50CF40CF713FF3E492A7408F90775089E
:1004AA000318750FFA0776080318760FFB07770803
:1004BA000318770FFC070B30F4007008F500710879
:1004CA00F6007208F7007308F80074080319742A12
:1004DA00F80CF70CF60CF50CF813FF3E6B2A7908AA
:1004EA00F1007A08F2007B08F3007C08F400750832
:1004FA00F10776080318760FF20777080318770FC3
:10050A00F30778080318780FF4077108C000720817
:10051A00C1007308C2007408C30000307402031DCE
:10052A00A02A00307302031DA02A07307202031D9D
:10053A00A02AD03071020318A82AD030C000073090
:10054A00C100C201C3012A08003C031DAE2A2908C2
:10055A0020020318512B3E083806031DBE2A3D0807
:10056A003706031DBE2A3C083606031DBE2A3B0871
:10057A003506031DC62AF430A7000130A800A101E0
:10058A009E2938083E02031DD42A37083D02031D5E
:10059A00D42A36083C02031DD42A35083B02031824
:1005AA001F2B3508F1003608F2003708F300380827
:1005BA00F4003B08F1023C08031C3C0FF2023D0820
:1005CA00031C3D0FF3023E08031C3E0FF4024308CE
:1005DA007402031DFA2A42087302031DFA2A41080B
:1005EA007202031DFA2A400871020318022BF43022
:1005FA00A7000130A800A1019E299630A700A801F2
:10060A00A10A02302102FF30031C0030F1002E083B
:10061A002A02031D122B2D082902FF30031800306D
:10062A00F0007108F00503191D2BFF30A2001E2BE4
:10063A00A209502B3B08F1003C08F2003D08F300E8
:10064A003E08F4003508F1023608031C360FF202A0
:10065A003708031C370FF3023808031C380FF4025B
:10066A0043087402031D432B42087302031D432BE4
:10067A0041087202031D432B4008710203184B2BD9
:10068A00F430A7000130A800A1019E292C30A70050
:10069A000130A800A101612B9630A700A8013C30C7
:1006AA00C4002220FF30A200BB01BC01BD01BE0173
:1006BA00A901AA01A1019E29F6207008BF002208FB
:1006CA000319752BC8303F020318702BBF0A3F0865
:1006DA00C4002220742BC830C4002220A201832B1C
:1006EA003F08143C03187E2BBF033F08C400222096
:1006FA00832B1430C4002220FF30A2009E29842BB1
:02400E00DC0FC5
:00000001FF
