:020000000429D1
:10000800FF00030E8301C2000A08C3008A010C1C0A
:100018001528FC308F0017308E000C10BE0A03190B
:10002800BF0A43088A00420E8300FF0E7F0E0900B4
:0C00380007308312FD00FD0B1F2808009C
:1000440083124608F000F00CF01370089300461871
:0A0054002D2895122E28951608009D
:10005E0082308312FC00DD30FD00FD0B3428FC0BDA
:08006E00342800000000080026
:10007600C33083129F05F0309F05BF309F05F030D7
:1000860083169F0483129F174608F000F00D701028
:10009600F00D701070089F041F141C209F149F1CE5
:1000A6005628000052281F101E08F100F001831682
:1000B6001E0870048312C7007108C8000030C80407
:0A00C6004708F0004808F1000800A8
:1000D00083121308F000F00D70107008F200951AEA
:0E00E00073287210742872147208F000080061
:1000EE0083169C1C7C2800007728831246088316F2
:1000FE009B008312470883169A009C131C150B084D
:10010E00F0008B1355309D00AA309D009C14F01BFF
:0C011E0092288B1393288B171C110800EB
:10012A008312460883169B009C131C141A08F100BC
:06013A007108F00008004E
:10014000831249084702031DA728480846020318DE
:10015000C0284808FF3CF0004908031C013EFF3C52
:10016000F1004608F00747080318013EF107700840
:10017000013EF20000300318013E7107F300C82869
:1001800048084602F2004908031C013E4702F300FA
:0A0190007208F0007308F100080087
:10019A00831203132230FC00F801F901FA01FB0172
:1001AA00FC03031903290310FB0CFA0CF90CF80CD5
:1001BA00F30CF20CF10CF00C031CD528FC03031908
:1001CA00F5287408F80775080318750FF9077608F3
:1001DA000318760FFA0777080318770FFB07D92851
:1001EA007408F80775080318750FF90776080318D5
:0E01FA00760FFA0777080318770FFB07080047
:10020800073083129900093083169F0005140516DC
:100218008514851283121F179F17920183160515DF
:1002280063309200831215120F3095003C30C600DF
:1002380022208316051183128C1012156400851272
:10024800C830C000C101BE01BF01BD012F202F2051
:10025800640085194B292F202F20C6013B207008E8
:10026800C4007108C500C6014408C70077202F20C4
:1002780085160430FB008E30FC001230FD00FD0BAB
:100288004329FC0B4329FB0B43290000851264001A
:100298002F20C601952070088312BD0070081F3CEE
:1002A80003185729BD0190121012901017308E00B4
:1002B800FC308F000C10AD01AE01C401C501B201C4
:1002C800B301B401B50183160C140B178B178312F5
:1002D80010143C30C6002220FF30B100AF01B0013D
:1002E800AB01AC01A401A501A201A3010230FB00EE
:1002F8008630FC009930FD00FD0B8029FC0B80291D
:10030800FB0B802985160230FB008630FC009930F3
:10031800FD00FD0B8D29FC0B8D29FB0B8D2985120A
:100328006400A001A1013E08A9003F08AA003E08F8
:10033800C6003F08C7002408C8002508C900A02037
:1003480071084102031DAA29700840020318B22946
:100358002908A4002A08A500203085062F08A70030
:100368003008A8002D08AF002E08B000C6013B20B9
:100378007008C4007108C5000330C6003B2070082F
:10038800AD007108AE000130A600C6013B20700820
:10039800B6007108B7000330C6003B207008A900FA
:1003A8007108AA0045083702031DDC2944083602F3
:1003B8000318E6293608C4003708C5002908AD0027
:1003C8002A08AE002608033A0319EC29A60AC92907
:1003D800AD0DAE0D2D10AD0DAE0D2D103E08A900C2
:1003E8003F08AA003E08C6003F08C7002008C8000A
:1003F8002108C900A0207108033C031D052A7008C4
:10040800E83C03180C2A2908A0002A08A100640067
:100418003E08A9003F08AA003E08C6003F08C700DA
:100428002B08C8002C08C900A02000307102031D49
:100438001F2A143070020318222A97292908AB00B2
:100448002A08AC003208B9003308BA003408BB00E7
:100458003508BC002D08F0002E08F100F201F30168
:100468004408F4004508F500F601F701CD207008AE
:10047800B2007108B3007208B4007308B5004508EB
:10048800003C031D492A44083D0203187B2A35080D
:100498003C06031D592A34083B06031D592A330814
:1004A8003A06031D592A32083906031D602AF4301A
:1004B800C0000130C10097293C083502031D6E2A8F
:1004C8003B083402031D6E2A3A083302031D6E2AC4
:1004D800390832020318762A2C30C0000130C100D6
:1004E800B1097A2A2C30C0000130C1008A2AC830EC
:1004F800C000C1013C30C6002220FF30B100B2016B
:10050800B301B401B501C401C50197296820700879
:10051800B800310803199E2AC83038020318992AEE
:10052800B80A3808C60022209D2AC830C6002220F2
:10053800B101AC2A38080A3C0318A72AB8033808BE
:10054800C6002220AC2A0A30C6002220FF30B100A3
:040558009729AD2A08
:02400E00DC0FC5
:00000001FF
