:020000000D29C8
:10000800FF00030E8301C6000A08C5008A010C1C04
:100018001528FC308F0017308E000C10C20A031907
:10002800C30A45088A00460E8300FF0E7F0E0900AA
:0C00380007308312FD00FD0B1F2808009C
:1000440082308312FC00DD30FD00FD0B2728FC0B01
:0800540027280000000008004D
:10005C0083124708F000F00CF01370089300471857
:0C006C00392895123A2895161512080044
:100078008312470883169B009C131C141A08F1006E
:060088007108F000080001
:10008E0083169C1C4C2800004728831247088316B1
:10009E009B008312480883169A009C131C150B08AC
:1000AE00F0008B1355309D00AA309D009C14F01B60
:0C00BE0062288B1363288B171C110800AC
:1000CA0083124A084802031D6C284908470203188C
:1000DA0085284908FF3CF0004A08031C013EFF3C02
:1000EA00F1004708F00748080318013EF1077008B5
:1000FA00013EF20000300318013E7107F3008D281B
:10010A0049084702F2004A08031C013E4802F3006C
:0A011A007208F0007308F1000800FD
:1001240019308312FD00FD0B952800000000080023
:10013400C33083129F05F0309F05BF309F05F03018
:1001440083169F0483129F174708F000F00D701068
:10015400F00D701070089F041F141C209F149F1C26
:10016400B5280000B1281F101E08F100F001831605
:100174001E0870048312C8007108C9000030C90445
:0A0184004808F0004908F1000800E7
:10018E00831203132230FC00F801F901FA01FB017E
:10019E00FC030319FD280310FB0CFA0CF90CF80CE8
:1001AE00F30CF20CF10CF00C031CCF28FC0303191A
:1001BE00EF287408F80775080318750FF907760805
:1001CE000318760FFA0777080318770FFB07D32863
:1001DE007408F80775080318750FF90776080318E1
:0E01EE00760FFA0777080318770FFB07080053
:1001FC0083121308F000F00D70107008F200951ABD
:0E020C00092972100A2972147208F000080005
:10021A00073083129900093083169F0005140516CA
:10022A008514851283121F179F17920183160515CD
:10023A00633092000F30831295000C30C7002E20D5
:10024A008316051183128C10121564008512C830AA
:10025A00C000C101C201C301222022206400C701DB
:10026A003C2070088312C4007008FF3A031D3F291E
:10027A001F30C400851959294409F0007008C400C8
:10028A00C7017008C8004720222085160430FB00E9
:10029A008E30FC001230FD00FD0B5129FC0B512958
:1002AA00FB0B512900008512640090121012901065
:1002BA0017308E00FC308F000C10B201B301B90167
:1002CA00BA01B501B601B701B80183160C140B17B0
:1002DA008B17831210141430C7002E20FF30B4007D
:1002EA00B001B101A401A5010230FB008630FC0077
:1002FA009930FD00FD0B7F29FC0B7F29FB0B7F2921
:10030A0085160230FB008630FC009930FD00FD0B9B
:10031A008C29FC0B8C29FB0B8C2985126400A20109
:10032A00A3014208A0004308A1004208C7004308ED
:10033A00C8002408C9002508CA00652071084102BE
:10034A00031DA929700840020318B1292008A40036
:10035A002108A500203085068519C0290D30FB002B
:10036A00AF30FC00B630FD00FD0BB929FC0BB929F2
:10037A00FB0BB92900008C1CC0299220C7019A20C6
:10038A007008B9007108BA000330C7009A207008D3
:10039A00AE007108AF007008B2007108B300B20D68
:1003AA00B30D3210B20DB30D32104208A00043084B
:1003BA00A1004208C7004308C8002208C900230850
:1003CA00CA00652003307102031DED29E83070026E
:1003DA00031CF4292008A2002108A3006400420893
:1003EA00A0004308A1004208C7004308C80030081B
:1003FA00C9003108CA00652000307102031D072AAE
:10040A006430700203180A2A96292008B0002108CD
:10041A00B1003508AA003608AB003708AC00380826
:10042A00AD003208F0003308F100F201F301390897
:10043A00F4003A08F500F601F701C7207008B50084
:10044A007108B6007208B7007308B8003908F500D9
:10045A003A08F600F701F8012E08F5072F080318E5
:10046A002F0FF60730080318300FF7073108031863
:10047A00310FF8077508A6007608A7007708A800C4
:10048A007808A900A60DA70DA80DA90D2610A60D7E
:10049A00A70DA80DA90D2610A60DA70DA80DA90D2B
:1004AA0026107108BC007208BD007308BE00BF01A7
:1004BA000A30F8007008F4007108F5007208F600B6
:1004CA007308F70078080319712AF70CF60CF50C73
:1004DA00F40CF713FF3E682A7408BC077508031862
:1004EA00750FBD0776080318760FBE07770803183D
:1004FA00770FBF070B30F8007008F4007108F50099
:10050A007208F6007308F70078080319932AF70CA3
:10051A00F60CF50CF40CF713FF3E8A2A7408BC0794
:10052A0075080318750FBD0776080318760FBE07FE
:10053A0077080318770FBF07C41FC52A0C30F400C9
:10054A003508F0003608F1003708F2003808F300E1
:10055A0074080319B72AF30CF20CF10CF00CF3131C
:10056A00FF3EAE2A7008BC0771080318710FBD0759
:10057A0072080318720FBE0773080318730FBF07B8
:10058A0029083F02031DD32A28083E02031DD32A45
:10059A0027083D02031DD32A26083C020318DD2A38
:1005AA003C08A6003D08A7003E08A8003F08A9008D
:1005BA0000302902031DEB2A00302802031DEB2A12
:1005CA0000302702031DEB2A213026020318F22AE3
:1005DA002130A600A701A801A9013A08003C031D81
:1005EA00F82A3908023C03187F2B38082D06031D08
:1005FA00082B37082C06031D082B36082B06031D6B
:10060A00082B35082A06031D0F2BF430C0000130D1
:10061A00C10096292D083802031D1D2B2C0837020C
:10062A00031D1D2B2B083602031D1D2B2A0835021C
:10063A0003184F2B2A08F1002B08F2002C08F300AC
:10064A002D08F4003508F1023608031C360FF202B1
:10065A003708031C370FF3023808031C380FF4025B
:10066A0029087402031D432B28087302031D432B18
:10067A0027087202031D432B2608710203184A2B0E
:10068A00F430C0000130C10096299630C000C10183
:10069A00B4097E2B3508F1003608F2003708F3005A
:1006AA003808F4002A08F1022B08031C2B0FF20267
:1006BA002C08031C2C0FF3022D08031C2D0FF40227
:1006CA0029087402031D732B28087302031D732B58
:1006DA0027087202031D732B2608710203187A2B4E
:1006EA00F430C0000130C10096292C30C00001301E
:1006FA00C1009F2B9630C000C101FF30B400B50184
:10070A00B601B701B801B901BA01FE207008BB00F1
:10071A005F3070020318962BBB0A3B08C7002E20D5
:10072A009E2B3B085F3C03189E2BBB033B08C7006C
:10073A002E209629FE207008BB0034080319B32B1B
:10074A00B4303B020318AE2BBB0A3B08C7002E206D
:10075A00B22BB430C7002E20B401C12B3B080C3C8D
:10076A000318BC2BBB033B08C7002E20C12B0C303F
:0C077A00C7002E20FF30B4009629C22BCF
:02400E00DC0FC5
:00000001FF
