:020000000D29C8
:10000800FF00030E8301BD000A08C1008A010C1C11
:100018001528FC308F0017308E000C10BF0A03190A
:10002800C00A41088A003D0E8300FF0E7F0E0900BA
:0C00380007308312FD00FD0B1F2808009C
:1000440083124A08F000F00CF013700893004A1869
:0C0054002D2895122E2895161512080074
:1000600082308312FC00DD30FD00FD0B3528FC0BD7
:08007000352800000000080023
:1000780083169C1C412800003C2883124A088316DA
:100088009B0083124B0883169A009C131C150B08BF
:10009800F0008B1355309D00AA309D009C14F01B76
:0C00A80057288B1358288B171C110800D8
:1000B400C33083129F05F0309F05BF309F05F03099
:1000C40083169F0483129F174A08F000F00D7010E6
:1000D400F00D701070089F041F141C209F149F1CA7
:1000E4007528000071281F101E08F100F001831606
:1000F4001E0870048312CB007108CC000030CC04BD
:0A0104004B08F0004C08F100080061
:10010E00831203132230FC00F801F901FA01FB01FE
:10011E00FC030319BD280310FB0CFA0CF90CF80CA8
:10012E00F30CF20CF10CF00C031C8F28FC030319DA
:10013E00AF287408F80775080318750FF9077608C5
:10014E000318760FFA0777080318770FFB07932823
:10015E007408F80775080318750FF9077608031861
:0E016E00760FFA0777080318770FFB070800D3
:10017C0083124A0883169B009C131C141A08F10066
:06018C007108F0000800FC
:1001920083124D084B02031DD0284C084A02031853
:1001A200E9284C08FF3CF0004D08031C013EFF3CCF
:1001B200F1004A08F0074B080318013EF1077008E6
:1001C200013EF20000300318013E7107F300F128EE
:1001D2004C084A02F2004D08031C013E4B02F30098
:0A01E2007208F0007308F100080035
:1001EC0083121308F000F00D70107008F200951ACD
:0E01FC0001297210022972147208F000080026
:10020A0019308312FD00FD0B0829000000000800C8
:10021A00073083129900093083169F0005140516CA
:10022A008514851283121F179F17920183160515CD
:10023A00633092000F30831295000C30CA002220DE
:10024A008316051183128C10121564008512C830AA
:10025A00C200C301BF01C001BE01302030206400CA
:10026A008519532930203020CA015A207008C40049
:10027A007108C500CA014408CB003C20302085160D
:10028A000430FB008E30FC001230FD00FD0B4B29C0
:10029A00FC0B4B29FB0B4B29000085126400302014
:1002AA00CA01BE2070088312BE0070081F3C0318E2
:1002BA005F29BE0190121012901017308E00FC3088
:1002CA008F000C10B101B201C401C501B601B7011A
:1002DA00B801B90183160C140B178B17831210146B
:1002EA001430CA002220FF30B500B301B401AF01B7
:1002FA00B0010230FB008630FC009930FD00FD0B96
:10030A008429FC0B8429FB0B842985160230FB0007
:10031A008630FC009930FD00FD0B9129FC0B9129D8
:10032A00FB0B912985126400A301A401A2013F08D5
:10033A00A0004008A1003F08CA004008CB002F08CF
:10034A00CC003008CD00C92071084302031DAF2933
:10035A00700842020318B7292008AF002108B0002C
:10036A00203085068519C6290D30FB00AF30FC0008
:10037A00B630FD00FD0BBF29FC0BBF29FB0BBF29C3
:10038A0000008C1CC6290521CA015A207008C40025
:10039A007108C5000330CA005A207008AD00710800
:1003AA00AE007008B1007108B200B10DB20D311083
:1003BA00B10DB20D31103F08A0004008A1003F085E
:1003CA00CA004008CB002308CC002408CD00C9206D
:1003DA0003307102031DF329E8307002031CFA2965
:1003EA002008A3002108A40064003F08A0004008D8
:1003FA00A1003F08CA004008CB003308CC003408EB
:10040A00CD00C92000307102031D0D2A643070022C
:10041A000318102A9C292008B3002108B4003608C2
:10042A00A9003708AA003808AB003908AC0031081F
:10043A00F0003208F100F201F3014408F400450823
:10044A00F500F601F70187207008B6007108B700B9
:10045A007208B8007308B9004408F9004508FA00A0
:10046A00FB01FC012D08F9072E0803182E0FFA07C5
:10047A002F0803182F0FFB0730080318300FFC074B
:10048A007908F5007A08F6007B08F7007C08F8007E
:10049A00F50DF60DF70DF80D7510F50DF60DF70DB6
:1004AA00F80D75107508C6007608C7007708C800E9
:1004BA007808C900C60DC70DC80DC90D46104608F3
:1004CA00A5004708A6004808A7004908A800073061
:1004DA00F4007008F9007108FA007208FB0073084A
:1004EA00FC0074080319802AFC0CFB0CFA0CF90CAA
:1004FA00FC13FF3E772A0A30F4007008F5007108F1
:10050A00F6007208F7007308F80074080319942AB1
:10051A00F80CF70CF60CF50CF813FF3E8B2A790849
:10052A00F1007A08F2007B08F3007C08F4007508F1
:10053A00F1027608031C760FF2027708031C770F84
:10054A00F3027808031C780FF40249087402031DA9
:10055A00B82A48087302031DB82A47087202031D05
:10056A00B82A460871020318F02A0730F000360844
:10057A00A5003708A6003808A7003908A80070089F
:10058A000319CE2AA80CA70CA60CA50CA813FF3E8B
:10059A00C52A0A30F4003608F0003708F100380896
:1005AA00F2003908F30074080319E22AF30CF20C7A
:1005BA00F10CF00CF313FF3ED92A7008A50271085A
:1005CA00031C710FA6027208031C720FA70273089C
:1005DA00031C730FA80200302802031DFE2A0030F4
:1005EA002702031DFE2A00302602031DFE2A21309F
:1005FA0025020318052B2130A500A601A701A80191
:10060A0002303E07F1004508003C031D0E2B44084A
:10061A0071020318BD2B22080319342B3F08CA00A4
:10062A004008CB003B08CC003C08CD00C9200B3069
:10063A007102031D222BB83070020318332BE830E5
:10064A00C2000330C30001302E02031D2E2B90304E
:10065A002D02FF3003180030B500342BA201220905
:10066A00F0000319BC2B39082C06031D462B380849
:10067A002B06031D462B37082A06031D462B360870
:10068A002906031D4D2BF430C2000130C3009C29FA
:10069A002C083902031D5B2B2B083802031D5B2B28
:1006AA002A083702031D5B2B2908360203188D2BF3
:1006BA002908F1002A08F2002B08F3002C08F4009C
:1006CA003608F1023708031C370FF2023808031CF8
:1006DA00380FF3023908031C390FF4022808740290
:1006EA00031D812B27087302031D812B2608720222
:1006FA00031D812B250871020318882BF430C200D0
:10070A000130C3009C299630C200C301B509BC2B35
:10071A003608F1003708F2003808F3003908F40007
:10072A002908F1022A08031C2A0FF2022B08031CCB
:10073A002B0FF3022C08031C2C0FF4022808740256
:10074A00031DB12B27087302031DB12B2608720261
:10075A00031DB12B250871020318B82BF430C2000F
:10076A000130C3009C292C30C2000130C300E32BA6
:10077A009630C200C301FF30A2003F08BB00400808
:10078A00BC00FF30B500B601B701B801B901C40118
:10079A00C501F6207008BA005F3070020318DA2B20
:1007AA00BA0A3A08CA002220E22B3A085F3C031828
:1007BA00E22BBA033A08CA0022209C29F6207008C4
:1007CA00BA0035080319F72BB4303A020318F22B92
:1007DA00BA0A3A08CA002220F62BB430CA002220EC
:1007EA00B501052C3A080C3C0318002CBA033A0848
:1007FA00CA002220052C0C30CA002220FF30B50086
:04080A009C29062CF3
:02400E00DC0FC5
:00000001FF
