:020000001229C3
:10000800FF00030E8301BB000A08BF008A010C1C15
:100018001528FC308F0017308E000C10BC0A03190D
:10002800BD0A3F088A003B0E8300FF0E7F0E0900C1
:0C00380007308312FD00FD0B1F2808009C
:1000440083124408F000F00CF013F00CF013700865
:100054009300C4182F289512302895164418342874
:080064001512352815160800DD
:10006C0082308312FC00DD30FD00FD0B3B28FC0BC5
:08007C003B2800000000080011
:10008400C33083129F05F0309F05BF309F05F030C9
:1000940083169F0483129F174408F000F00D70101C
:1000A400F00D701070089F041F141C209F149F1CD7
:1000B4005D28000059281F101E08F100F001831666
:1000C4001E0870048312C5007108C6000030C604FF
:0A00D4004508F0004608F10008009E
:1000DE0083121308F000F00D7010F00D7010700800
:1000EE00F200951A7C28F2107D28F214151A812838
:0C00FE007210822872147208F0000800D2
:10010A0083169C1C8A2800008528831244088316BB
:10011A009B008312450883169A009C131C150B0832
:10012A00F0008B1355309D00AA309D009C14F01BE3
:0C013A00A0288B13A1288B171C110800B3
:100146008312440883169B009C131C141A08F100A2
:060156007108F000080032
:10015C00831247084502031DB528460844020318BC
:10016C00CE284608FF3CF0004708031C013EFF3C2C
:10017C00F1004408F00745080318013EF107700828
:10018C00013EF20000300318013E7107F300D6283F
:10019C0046084402F2004708031C013E4502F300E6
:0A01AC007208F0007308F10008006B
:1001B600831203132230FC00F801F901FA01FB0156
:1001C600FC03031911290310FB0CFA0CF90CF80CAB
:1001D600F30CF20CF10CF00C031CE328FC030319DE
:1001E60003297408F80775080318750FF9077608C8
:1001F6000318760FFA0777080318770FFB07E72827
:100206007408F80775080318750FF90776080318B8
:0E021600760FFA0777080318770FFB0708002A
:10022400073083129900093083169F0005140516C0
:100234008514851283121F179F17920183160515C3
:10024400633092000F3083129500C40122208C1079
:10025400121564008C1C2C29831605118312851237
:10026400C830C000C101BC01BD01BE01362036202A
:1002740064008519592936203620C40142207008AB
:10028400C2007108C300C4014208C500852036209D
:1002940085160430FB008E30FC001230FD00FD0B8F
:1002A4005129FC0B5129FB0B5129000085126400D4
:1002B4003620C401A32070088312BE0070081F3CBE
:1002C40003186529BE0190121012901017308E0089
:1002D400FC308F000C10B201B301C201C301AE01A6
:1002E400AF01B001B10183160C140B178B178312E5
:1002F40010140A30C4002220FF30AD00AB01AC0161
:10030400A401A501A201A301A001A101640002307E
:10031400FB008630FC009930FD00FD0B8F29FC0B9F
:100324008F29FB0B8F2985160230FB008630FC00D9
:100334009930FD00FD0B9C29FC0B9C29FB0B9C298F
:10034400851264003C08A9003D08AA003C08C400CA
:100354003D08C5002208C6002308C700AE20710866
:100364004102031DB729700840020318BF29290858
:10037400A2002A08A300203085062B08A7002C0819
:10038400A8003208AB003308AC008C1CC729C40198
:1003940042207008C2007108C3000330C400422028
:1003A4007008B2007108B3000130A600C4014220F5
:1003B4007008B4007108B5000330C400422070080E
:1003C400A9007108AA0043083502031DEB2942085D
:1003D40034020318F5293408C2003508C30029087B
:1003E400B2002A08B3002608033A0319FB29A60A17
:1003F400D829B20DB30D3210B20DB30D32103C0832
:10040400A9003D08AA003C08C4003D08C500240812
:10041400C6002508C700AE2000307102031D142A4F
:10042400193070020318172AA42964002908A400AB
:100434002A08A5002E08B7002F08B8003008B90014
:100444003108BA003208F0003308F100F201F30178
:100454004208F4004308F500F601F701DB207008B8
:10046400AE007108AF007208B0007308B100430811
:10047400003C031D3F2A42083E020318712A31083A
:100484003A06031D4F2A30083906031D4F2A2F0848
:100494003806031D4F2A2E083706031D562AF4304A
:1004A400C0000130C100A4293A083102031D642AA6
:1004B40039083002031D642A38082F02031D642AF8
:1004C40037082E0203186C2A2C30C0000130C100FA
:1004D400AD09702A2C30C0000130C100802AC83018
:1004E400C000C1010A30C4002220FF30AD00AE01BB
:1004F400AF01B001B101C201C301A4296F2070088A
:10050400B6002D080319942A6430360203188F2A82
:10051400B60A3608C4002220932A6430C40022207C
:10052400AD01A22A36080A3C03189D2AB6033608F0
:10053400C4002220A22A0A30C4002220FF30AD00C9
:04054400A429A32A19
:02400E00DC0FC5
:00000001FF
