:020000000429D1
:10000800FF00030E8301C7000A08C6008A010C1C02
:100018001528FC308F0017308E000C10BF0A03190A
:10002800C00A46088A00470E8300FF0E7F0E0900AB
:0C00380007308312FD00FD0B1F2808009C
:1000440083124808F000F00CF0137008930048186D
:0A0054002D2895122E28951608009D
:10005E0082308312FC00DD30FD00FD0B3428FC0BDA
:08006E00342800000000080026
:10007600C33083129F05F0309F05BF309F05F030D7
:1000860083169F0483129F174808F000F00D701026
:10009600F00D701070089F041F141C209F149F1CE5
:1000A6005628000052281F101E08F100F001831682
:1000B6001E0870048312C9007108CA000030CA0401
:0A00C6004908F0004A08F1000800A4
:1000D00083121308F000F00D70107008F200951AEA
:0E00E00073287210742872147208F000080061
:1000EE0083169C1C7C2800007728831248088316F0
:1000FE009B008312490883169A009C131C150B084B
:10010E00F0008B1355309D00AA309D009C14F01BFF
:0C011E0092288B1393288B171C110800EB
:10012A008312480883169B009C131C141A08F100BA
:06013A007108F00008004E
:1001400083124B084902031DA7284A0848020318D6
:10015000C0284A08FF3CF0004B08031C013EFF3C4E
:10016000F1004808F00749080318013EF10770083C
:10017000013EF20000300318013E7107F300C82869
:100180004A084802F2004B08031C013E4902F300F2
:0A0190007208F0007308F100080087
:10019A00831203132230FC00F801F901FA01FB0172
:1001AA00FC03031903290310FB0CFA0CF90CF80CD5
:1001BA00F30CF20CF10CF00C031CD528FC03031908
:1001CA00F5287408F80775080318750FF9077608F3
:1001DA000318760FFA0777080318770FFB07D92851
:1001EA007408F80775080318750FF90776080318D5
:0E01FA00760FFA0777080318770FFB07080047
:10020800073083129900093083169F0005140516DC
:100218008514851283121F179F17920183160515DF
:1002280063309200831215120F3095003C30C800DD
:1002380022208316051183128C1012156400851272
:10024800C830C100C201BF01C001C3012F202F2047
:10025800640085194B292F202F20C8013B207008E6
:10026800C4007108C500C8014408C90077202F20C0
:1002780085160430FB008E30FC001230FD00FD0BAB
:100288004329FC0B4329FB0B43290000851264001A
:100298002F20C801952070088312C30070081F3CE6
:1002A80003185729C30190121012901017308E00AE
:1002B800FC308F000C10AD01AE01C401C501AF01C7
:1002C800B001B101B20183160C140B178B178312FE
:1002D80010143C30C8002220FF30B700B501B60129
:1002E800B301B401A401A501A201A3010230FB00DE
:1002F8008630FC009930FD00FD0B8029FC0B80291D
:10030800FB0B802985160230FB008630FC009930F3
:10031800FD00FD0B8D29FC0B8D29FB0B8D2985120A
:100328006400A001A101A601A7013F08AB00400895
:10033800AC003F08C8004008C9002408CA002508C6
:10034800CB00A02071084202031DAC2970084102AD
:100358000318B4292B08A4002C08A5002030850612
:100368003508A9003608AA002D08B5002E08B600E1
:100378004408A6004508A700C8013B207008C4002F
:100388007108C5000330C8003B207008AD00710833
:10039800AE000130A800C8013B207008BD007108FC
:1003A800BE000330C8003B207008AB007108AC00E9
:1003B80045083E02031DE22944083D020318EC29C2
:1003C8003D08C4003E08C5002B08AD002C08AE004F
:1003D8002808033A0319F229A80ACF29AD0DAE0D52
:1003E8002D10AD0DAE0D2D103F08AB004008AC0030
:1003F8003F08C8004008C9002008CA002108CB00EF
:10040800A0207108033C031D0B2A7008E83C031860
:10041800122A2B08A0002C08A10064003F08AB009A
:100428004008AC003F08C8004008C9003308CA00AB
:100438003408CB00A02000307102031D252A123099
:1004480070020318282A99292B08B3002C08B40035
:100458002F08B9003008BA003108BB003208BC00C8
:100468002D08F0002E08F100F201F3014408F40011
:100478004508F500F601F701CD207008AF007108B6
:10048800B0007208B1007308B2004508003C031DB3
:100498004F2A4408430203188C2A32083C06031DDD
:1004A8005F2A31083B06031D5F2A30083A06031D00
:1004B8005F2A2F083906031D662AF430C10001306F
:1004C800C20099293C083202031D742A3B083102F4
:1004D800031D742A3A083002031D742A39082F02B2
:1004E8000318872A2C30C1000130C20027084502B2
:1004F800031D802A260844020318852AFF30B70006
:10050800862AB7098B2A2C30C1000130C2009B2AE9
:10051800C830C100C2013C30C8002220FF30B700FB
:10052800AF01B001B101B201C401C5019929682028
:100538007008B80037080319AF2AC8303802031802
:10054800AA2AB80A3808C8002220AE2AC830C8002B
:100558002220B701BD2A38080A3C0318B82AB80374
:100568003808C8002220BD2A0A30C8002220FF30DF
:06057800B7009929BE2A1C
:02400E00DC0FC5
:00000001FF
