:02000000BB281B
:10000800FF00030E8301BE000A08BF008A010C1C12
:100018001528F8308F0030308E000C10BC0A0319F8
:10002800BD0A3F088A003E0E8300FF0E7F0E0900BE
:0C00380007308312FD00FD0B1F2808009C
:1000440082308312FC00DD30FD00FD0B2728FC0B01
:0800540027280000000008004D
:10005C00C33083129F05F0309F05BF309F05F030F1
:10006C0083169F0483129F174208F000F00D701046
:10007C00F00D701070089F041F141C209F149F1CFF
:10008C004928000045281F101E08F100F0018316B6
:10009C001E0870048312C3007108C4000030C4042D
:0A00AC004308F0004408F1000800CA
:1000B600831203132230FC00F801F901FA01FB0157
:1000C600FC03031991280310FB0CFA0CF90CF80C2D
:1000D600F30CF20CF10CF00C031C6328FC0303195F
:1000E60083287408F80775080318750FF90776084A
:1000F6000318760FFA0777080318770FFB076728A8
:100106007408F80775080318750FF90776080318B9
:0E011600760FFA0777080318770FFB0708002B
:1001240083169C1C97280000922883124208831689
:100134009B008312430883169A009C131C150B081A
:10014400F0008B1355309D00AA309D009C14F01BC9
:0C015400AD288B13AE288B171C1108007F
:100160008312420883169B009C131C141A08F1008A
:060170007108F000080018
:10017600073083129900093083169F00051405166F
:100186008514851283121F179F159F178316051551
:10019600653092000F308312950093018C10121572
:1001A60064008C1CD42883160511831285126430D2
:1001B600BA00BC01BD01BB012220222064008519C2
:1001C600002922202220C2012E207008C0007108BA
:1001D600C100C2014008C3009220222085160430C7
:1001E600FB008E30FC001230FD00FD0BF828FC0BE6
:1001F600F828FB0BF8280000851264002220C201B3
:10020600B02070088312BB0070081F3C03180C292D
:10021600BB0190121012901030308E00F8308F0013
:100226000C10AB01AC01C001C101B001B101B201BA
:10023600B30183160C140B178B17831210140A3094
:100246009300FF30AF00AD01AE01A401A501A201EC
:10025600A301A001A10164000230FB008630FC006E
:100266009930FD00FD0B3529FC0B3529FB0B352993
:1002760085160230FB008630FC009930FD00FD0B30
:100286004229FC0B4229FB0B4229851264003C08DB
:10029600A9003D08AA0022083C02F1002308031C1D
:1002A600013E3D02F2007208003C031D5C29710804
:1002B6003A02031864292908A2002A08A30020305C
:1002C60085062D08A7002E08A8002B08AD002C08CF
:1002D600AE008C1C6C29C2012E207008C00071086B
:1002E600C1000330C2002E207008AB007108AC00BC
:1002F600A601C2012E207008B4007108B5000330B3
:10030600C2002E207008A9007108AA007008AB0769
:1003160071080318013EAC07AC0CAB0CAC133508E6
:100326004102031D98293408400203189E29340807
:10033600C0003508C1002608033A0319A429A60AF5
:100346007C29AB0DAC0D2B10AB0DAC0D2B103C0866
:10035600A9003D08AA0024083C02F1002508031C58
:10036600013E3D02F20000307202031DBC290F302F
:1003760071020318BF29372A64002908A4002A0835
:10038600A5003008B6003108B7003208B8003308B7
:10039600B9002B08F0002C08F100F201F301400827
:1003A600F4004108F500F601F7015B207008B00083
:1003B6007108B1007208B2007308B3004108003C2E
:1003C600031DE72940083B020318132A33083906A0
:1003D600031DF72932083806031DF72931083706A9
:1003E600031DF72930083606031DFC29FA30BA002A
:1003F600372A39083302031D0A2A38083202031D38
:100406000A2A37083102031D0A2A36083002031861
:10041600102A9630BA00AF09122A9630BA00202A5E
:100426006430BA000A309300FF30AF00B001B1016A
:10043600B201B301C001C101372A2F0803192D2AC1
:10044600FA3013020318292A930A2C2AFA30930049
:10045600AF01372A13080A3C0318332A9303372AB5
:0C0466000A309300FF30AF004A29382A0A
:02400E00DC0FC5
:00000001FF
