:020000000D29C8
:10000800FF00030E8301C0000A08C1008A010C1C0E
:100018001528FC308F0017308E000C10BE0A03190B
:10002800BF0A41088A00400E8300FF0E7F0E0900B8
:0C00380007308312FD00FD0B1F2808009C
:1000440083124708F000F00CF0137008930047186F
:0C0054002D2895122E2895161512080074
:1000600082308312FC00DD30FD00FD0B3528FC0BD7
:08007000352800000000080023
:1000780083169C1C412800003C28831247088316DD
:100088009B008312480883169A009C131C150B08C2
:10009800F0008B1355309D00AA309D009C14F01B76
:0C00A80057288B1358288B171C110800D8
:1000B400C33083129F05F0309F05BF309F05F03099
:1000C40083169F0483129F174708F000F00D7010E9
:1000D400F00D701070089F041F141C209F149F1CA7
:1000E4007528000071281F101E08F100F001831606
:1000F4001E0870048312C8007108C9000030C904C6
:0A0104004808F0004908F100080067
:10010E00831203132230FC00F801F901FA01FB01FE
:10011E00FC030319BD280310FB0CFA0CF90CF80CA8
:10012E00F30CF20CF10CF00C031C8F28FC030319DA
:10013E00AF287408F80775080318750FF9077608C5
:10014E000318760FFA0777080318770FFB07932823
:10015E007408F80775080318750FF9077608031861
:0E016E00760FFA0777080318770FFB070800D3
:10017C008312470883169B009C131C141A08F10069
:06018C007108F0000800FC
:1001920083124A084802031DD0284908470203185F
:1001A200E9284908FF3CF0004A08031C013EFF3CD5
:1001B200F1004708F00748080318013EF1077008EC
:1001C200013EF20000300318013E7107F300F128EE
:1001D20049084702F2004A08031C013E4802F300A4
:0A01E2007208F0007308F100080035
:1001EC0083121308F000F00D70107008F200951ACD
:0E01FC0001297210022972147208F000080026
:10020A0019308312FD00FD0B0829000000000800C8
:10021A00073083129900093083169F0005140516CA
:10022A008514851283121F179F17920183160515CD
:10023A00633092000F30831295000C30C7002220E1
:10024A008316051183128C10121564008512C830AA
:10025A00BC00BD01BE01BF01C201302030206400D4
:10026A008519532930203020C7015A207008BA0056
:10027A007108BB00C7013A08C8003C203020851627
:10028A000430FB008E30FC001230FD00FD0B4B29C0
:10029A00FC0B4B29FB0B4B29000085126400302014
:1002AA00C701BE2070088312C20070081F3C0318E1
:1002BA005F29C20190121012901017308E00FC3084
:1002CA008F000C10B301B401BA01BB01AF01B00138
:1002DA00B101B20183160C140B178B178312101479
:1002EA001430C7002220FF30AE00A401A501A201EC
:1002FA00A3010230FB008630FC009930FD00FD0BA3
:10030A008429FC0B8429FB0B842985160230FB0007
:10031A008630FC009930FD00FD0B9129FC0B9129D8
:10032A00FB0B912985126400A001A1013E08AC00D3
:10033A003F08AD003E08C7003F08C8002208C900B0
:10034A002308CA00C92071083D02031DAE2970089E
:10035A003C020318B6292C08A2002D08A30020305D
:10036A0085068519C5290D30FB00AF30FC00B63073
:10037A00FD00FD0BBE29FC0BBE29FB0BBE290000AC
:10038A008C1CC5290521C7015A207008BA007108BA
:10039A00BB000330C7005A207008AA007108AB00DE
:1003AA007008B3007108B400B30DB40D3310B30D67
:1003BA00B40D33103E08AC003F08AD003E08C7003C
:1003CA003F08C8002008C9002108CA00C920033014
:1003DA007102031DF229E8307002031CF9292C0866
:1003EA00A0002D08A10064003E08AC003F08AD0043
:1003FA003E08C7003F08C8002408C9002508CA00EB
:10040A00C92000307102031D0C2A643070020318DF
:10041A000F2A9B292C08A4002D08A5002F08A60046
:10042A003008A7003108A8003208A9003308F000F4
:10043A003408F100F201F3013A08F4003B08F50030
:10044A00F601F70187207008AF007108B000720842
:10045A00B1007308B2003A08F9003B08FA00FB0140
:10046A00FC012A08F9072B0803182B0FFA072C0896
:10047A0003182C0FFB072D0803182D0FFC0779080A
:10048A00F5007A08F6007B08F7007C08F800F50DFD
:10049A00F60DF70DF80D7510F50DF60DF70DF80DB3
:1004AA0075107508C3007608C4007708C500780877
:1004BA00C600C30DC40DC50DC60D43104308B500D3
:1004CA004408B6004508B7004608B8007108F900A4
:1004DA007208FA007308FB00FC010A30F800700881
:1004EA00F4007108F5007208F6007308F70078083E
:1004FA000319862AF70CF60CF50CF40CF713FF3ED9
:10050A007D2A7408F90775080318750FFA07760823
:10051A000318760FFB0777080318770FFC070B30D1
:10052A00F4007008F5007108F6007208F700730805
:10053A00F80074080319A82AF80CF70CF60CF50C45
:10054A00F813FF3E9F2A7908F1007A08F2007B0827
:10055A00F3007C08F4007508F10776080318760F93
:10056A00F20777080318770FF30778080318780F4C
:10057A00F40746087402031DCC2A45087302031DBA
:10058A00CC2A44087202031DCC2A430871020318BC
:10059A00192B3008B5003108B6003208B700B80187
:1005AA000A30F4002F08F0003008F1003108F20098
:1005BA003208F30074080319E92AF30CF20CF10C5F
:1005CA00F00CF313FF3EE02A7008B5077108031810
:1005DA00710FB60772080318720FB707730803186A
:1005EA00730FB8070B30F4002F08F0003008F10041
:1005FA003108F2003208F300740803190B2BF30CCC
:10060A00F20CF10CF00CF313FF3E022B7008B50745
:10061A0071080318710FB60772080318720FB7072B
:10062A0073080318730FB80700303802031D272B0D
:10063A0000303702031D272B00303602031D272BFB
:10064A002130350203182E2B2130B500B601B7012F
:10065A00B80102304207F1003B08003C031D372B6A
:10066A003A0871020318BE2B32082906031D472BCC
:10067A0031082806031D472B30082706031D472B80
:10068A002F082606031D4E2BF430BC000130BD0096
:10069A009B2929083202031D5C2B28083102031DFD
:1006AA005C2B27083002031D5C2B26082F02031837
:1006BA008E2B2608F1002708F2002808F3002908E3
:1006CA00F4002F08F1023008031C300FF20231083F
:1006DA00031C310FF3023208031C320FF4023808EC
:1006EA007402031D822B37087302031D822B3608FE
:1006FA007202031D822B350871020318892BF4300C
:10070A00BC000130BD009B299630BC00BD01AE097A
:10071A00BD2B2F08F1003008F2003108F30032082F
:10072A00F4002608F1022708031C270FF202280802
:10073A00031C280FF3022908031C290FF4023808A6
:10074A007402031DB22B37087302031DB22B36083D
:10075A007202031DB22B350871020318B92BF4304B
:10076A00BC000130BD009B292C30BC000130BD000B
:10077A00DE2B9630BC00BD01FF30AE00AF01B001E8
:10078A00B101B201BA01BB01F6207008B9005F30AD
:10079A0070020318D52BB90A3908C7002220DD2BAD
:1007AA0039085F3C0318DD2BB9033908C70022203A
:1007BA009B29F6207008B9002E080319F22BB430D1
:1007CA0039020318ED2BB90A3908C7002220F12B88
:1007DA00B430C7002220AE01002C39080C3C0318A3
:1007EA00FB2BB9033908C7002220002C0C30C700A4
:0A07FA002220FF30AE009B29012CE5
:02400E00DC0FC5
:00000001FF
