:020000000D29C8
:10000800FF00030E8301B6000A08B5008A010C1C24
:100018001528FC308F0017308E000C10A10A031928
:10002800A20A35088A00360E8300FF0E7F0E0900EB
:0C00380007308312FD00FD0B1F2808009C
:1000440083124008F000F00CF0137008930040187D
:0C0054002D2895122E2895161512080074
:1000600082308312FC00DD30FD00FD0B3528FC0BD7
:08007000352800000000080023
:1000780083169C1C412800003C28831240088316E4
:100088009B008312410883169A009C131C150B08C9
:10009800F0008B1355309D00AA309D009C14F01B76
:0C00A80057288B1358288B171C110800D8
:1000B400C33083129F05F0309F05BF309F05F03099
:1000C40083169F0483129F174008F000F00D7010F0
:1000D400F00D701070089F041F141C209F149F1CA7
:1000E4007528000071281F101E08F100F001831606
:1000F4001E0870048312C1007108C2000030C204DB
:0A0104004108F0004208F100080075
:10010E00831203132230FC00F801F901FA01FB01FE
:10011E00FC030319BD280310FB0CFA0CF90CF80CA8
:10012E00F30CF20CF10CF00C031C8F28FC030319DA
:10013E00AF287408F80775080318750FF9077608C5
:10014E000318760FFA0777080318770FFB07932823
:10015E007408F80775080318750FF9077608031861
:0E016E00760FFA0777080318770FFB070800D3
:10017C008312400883169B009C131C141A08F10070
:06018C007108F0000800FC
:10019200831243084102031DD0284208400203187B
:1001A200E9284208FF3CF0004308031C013EFF3CE3
:1001B200F1004008F00741080318013EF1077008FA
:1001C200013EF20000300318013E7107F300F128EE
:1001D20042084002F2004308031C013E4102F300C0
:0A01E2007208F0007308F100080035
:1001EC0083121308F000F00D70107008F200951ACD
:0E01FC0001297210022972147208F000080026
:10020A0019308312FD00FD0B0829000000000800C8
:10021A00073083129900093083169F0005140516CA
:10022A008514851283121F179F17920183160515CD
:10023A00633092000F30831295003C30C0002220B8
:10024A008316051183128C10121564008512C830AA
:10025A00A600A701A101A201A001A301302030201C
:10026A0064008519542930203020C0015A207008B2
:10027A00B3007108B400C0013308C1003C2030202B
:10028A0085160430FB008E30FC001230FD00FD0B99
:10029A004C29FC0B4C29FB0B4C29000085126400ED
:1002AA003020C001BE2070088312A30070081F3CD2
:1002BA0003186029A30190121012901017308E00B3
:1002CA00FC308F000C10A801A901B301B401B701D9
:1002DA00B801B901BA0183160C140B178B178312D4
:1002EA0010143C30C0002220FF30AA00AF01B00138
:1002FA00B101B2010230FB008630FC009930FD00EA
:10030A00FD0B8529FC0B8529FB0B852985160230F7
:10031A00FB008630FC009930FD00FD0B9229FC0B96
:10032A009229FB0B922985126400AB01AC01AD0145
:10033A00AE012108A4002208A5002108C000220855
:10034A00C1003108C2003208C300C920710827025F
:10035A00031DB129700826020318B9292408B1001F
:10036A002508B200203085063308AD003408AE00F7
:10037A008C1CBD290521C0015A207008B3007108E0
:10038A00B4000330C0005A207008A8007108A90000
:10039A007008A8007108A900A80DA90D2810A80DB9
:1003AA00A90D28102108A4002208A5002108C000D0
:1003BA002208C1002B08C2002C08C300C920033040
:1003CA007102031DEA29E8307002031CF12924088E
:1003DA00AB002508AC0064002108A4002208A5008F
:1003EA002108C0002208C1002F08C2003008C3003B
:1003FA00C92000307102031D042A28307002031834
:10040A00072A9E292408AF002508B0003708BC0037
:10041A003808BD003908BE003A08BF002808F000B5
:10042A002908F100F201F3013308F4003408F50059
:10043A00F601F70187207008B7007108B800720842
:10044A00B9007308BA003408003C031D2E2A330889
:10045A0023020318792A3A083F06031D3E2A39085F
:10046A003E06031D3E2A38083D06031D3E2A37086C
:10047A003C06031D462AF430A6000130A700A0015D
:10048A009E293F083A02031D542A3E083902031DD9
:10049A00542A3D083802031D542A3C08370203181F
:1004AA00732A9630A600A701A00A0C302002FF305A
:1004BA00031C0030F1002E083402031D662A2D08A1
:1004CA003302FF3003180030F0007108F0050319F9
:1004DA00712AFF30AA00722AAA09782A2C30A600AB
:1004EA000130A700A001892A9630A600A7013C3056
:1004FA00C0002220FF30AA00B701B801B901BA0131
:10050A00B301B401A0019E29F6207008BB002A0895
:10051A0003199D2AC8303B020318982ABB0A3B08D4
:10052A00C00022209C2AC830C0002220AA01AB2A7F
:10053A003B08143C0318A62ABB033B08C000222030
:10054A00AB2A1430C0002220FF30AA009E29AC2A10
:02400E00DC0FC5
:00000001FF
