:020000000529D0
:10000800FF00030E8301B9000A08BD008A010C1C19
:100018001528FC308F0017308E000C10BA0A03190F
:10002800BB0A3D088A00390E8300FF0E7F0E0900C7
:0C00380007308312FD00FD0B1F2808009C
:1000440083124208F000F00CF01370089300421879
:0C0054002D2895122E2895161512080074
:1000600082308312FC00DD30FD00FD0B3528FC0BD7
:08007000352800000000080023
:10007800C33083129F05F0309F05BF309F05F030D5
:1000880083169F0483129F174208F000F00D70102A
:10009800F00D701070089F041F141C209F149F1CE3
:1000A8005728000053281F101E08F100F00183167E
:1000B8001E0870048312C3007108C4000030C40411
:0A00C8004308F0004408F1000800AE
:1000D20083121308F000F00D70107008F200951AE8
:0E00E20074287210752872147208F00008005D
:1000F00083169C1C7D2800007828831242088316F2
:100100009B008312430883169A009C131C150B084E
:10011000F0008B1355309D00AA309D009C14F01BFD
:0C01200093288B1394288B171C110800E7
:10012C008312420883169B009C131C141A08F100BE
:06013C007108F00008004C
:10014200831245084302031DA828440842020318EB
:10015200C1284408FF3CF0004508031C013EFF3C57
:10016200F1004208F00743080318013EF107700846
:10017200013EF20000300318013E7107F300C92866
:1001820044084202F2004508031C013E4302F30008
:0A0192007208F0007308F100080085
:10019C00831203132230FC00F801F901FA01FB0170
:1001AC00FC03031904290310FB0CFA0CF90CF80CD2
:1001BC00F30CF20CF10CF00C031CD628FC03031905
:1001CC00F6287408F80775080318750FF9077608F0
:1001DC000318760FFA0777080318770FFB07DA284E
:1001EC007408F80775080318750FF90776080318D3
:0E01FC00760FFA0777080318770FFB07080045
:10020A00073083129900093083169F0005140516DA
:10021A008514851283121F179F17920183160515DD
:10022A00633092000F30831295003C30C2002220C6
:10023A008316051183128C10121564008512C830BA
:10024A00BE00BF01BA01BB01BC01302030206400EE
:10025A0085194B2930203020C2013C207008C0008B
:10026A007108C100C2014008C300782030208516F9
:10027A000430FB008E30FC001230FD00FD0B4329D8
:10028A00FC0B4329FB0B4329000085126400302034
:10029A00C201962070088312BC0070081F3C031824
:1002AA005729BC0190121012901017308E00FC30A2
:1002BA008F000C10B201B301C001C101AE01AF0140
:1002CA00B001B10183160C140B178B17831210148B
:1002DA003C30C2002220FF30AD00AB01AC01A401CA
:1002EA00A5010230FB008630FC009930FD00FD0BB1
:1002FA007C29FC0B7C29FB0B7C2985160230FB0030
:10030A008630FC009930FD00FD0B8929FC0B8929F8
:10031A00FB0B892985126400A201A301A001A10196
:10032A003A08A9003B08AA003A08C2003B08C300E1
:10033A002408C4002508C500A12071083F02031D36
:10034A00A82970083E020318B0292908A4002A081F
:10035A00A500203085064008A0004108A100C2017E
:10036A003C207008C0007108C1000330C2003C2064
:10037A007008B2007108B3000130A800C2013C2025
:10038A007008A6007108A7000330C2003C2070085C
:10039A00A9007108AA0041082702031DD6294008AE
:1003AA0026020318E0292608C0002708C1002908E8
:1003BA00B2002A08B3002808033A0319E629A80A52
:1003CA00C3293A08A9003B08AA003A08C2003B0818
:1003DA00C3002208C4002308C500A120033071020B
:1003EA00031DF929E8307002031C002A2908A2001B
:1003FA002A08A30064003A08A9003B08AA003A08A0
:10040A00C2003B08C3002B08C4002C08C500A12069
:10041A0000307102031D132A283070020318162AAD
:10042A0095292908AB002A08AC002E08B5002F0828
:10043A00B6003008B7003108B8003208F0003308B7
:10044A00F100F201F3014008F4004108F500F60159
:10045A00F701CE207008AE007108AF007208B00034
:10046A007308B1004108003C031D3D2A40083C02C4
:10047A0003187A2A31083806031D4D2A3008370630
:10048A00031D4D2A2F083606031D4D2A2E08350650
:10049A00031D542AF430BE000130BF0095293808E4
:1004AA003102031D622A37083002031D622A360808
:1004BA002F02031D622A35082E020318752A2C30D2
:1004CA00BE000130BF0021084102031D6E2A200828
:1004DA0040020318732AFF30AD00742AAD09792A45
:1004EA002C30BE000130BF00892AC830BE00BF01CF
:1004FA003C30C2002220FF30AD00AE01AF01B00196
:10050A00B101C001C101952969207008B4002D0804
:10051A0003199D2AC83034020318982AB40A3408E9
:10052A00C20022209C2AC830C2002220AD01AB2A78
:10053A0034080A3C0318A62AB4033408C20022204D
:10054A00AB2A0A30C2002220FF30AD009529AC2A1E
:02400E00DC0FC5
:00000001FF
