:020000000429D1
:10000800FF00030E8301C2000A08C3008A010C1C0A
:100018001528FC308F0017308E000C10BE0A03190B
:10002800BF0A43088A00420E8300FF0E7F0E0900B4
:0C00380007308312FD00FD0B1F2808009C
:1000440083124608F000F00CF01370089300461871
:0A0054002D2895122E28951608009D
:10005E0082308312FC00DD30FD00FD0B3428FC0BDA
:08006E00342800000000080026
:10007600C33083129F05F0309F05BF309F05F030D7
:1000860083169F0483129F174608F000F00D701028
:10009600F00D701070089F041F141C209F149F1CE5
:1000A6005628000052281F101E08F100F001831682
:1000B6001E0870048312C7007108C8000030C80407
:0A00C6004708F0004808F1000800A8
:1000D00083121308F000F00D70107008F200951AEA
:0E00E00073287210742872147208F000080061
:1000EE0083169C1C7C2800007728831246088316F2
:1000FE009B008312470883169A009C131C150B084D
:10010E00F0008B1355309D00AA309D009C14F01BFF
:0C011E0092288B1393288B171C110800EB
:10012A008312460883169B009C131C141A08F100BC
:06013A007108F00008004E
:10014000831249084702031DA728480846020318DE
:10015000C0284808FF3CF0004908031C013EFF3C52
:10016000F1004608F00747080318013EF107700840
:10017000013EF20000300318013E7107F300C82869
:1001800048084602F2004908031C013E4702F300FA
:0A0190007208F0007308F100080087
:10019A00831203132230FC00F801F901FA01FB0172
:1001AA00FC03031903290310FB0CFA0CF90CF80CD5
:1001BA00F30CF20CF10CF00C031CD528FC03031908
:1001CA00F5287408F80775080318750FF9077608F3
:1001DA000318760FFA0777080318770FFB07D92851
:1001EA007408F80775080318750FF90776080318D5
:0E01FA00760FFA0777080318770FFB07080047
:10020800073083129900093083169F0005140516DC
:100218008514851283121F179F17920183160515DF
:1002280063309200831215120F309500C601222008
:100238008C10121564008C1C1F298316051183125B
:100248008512C830C000C101BE01BF01BD012F2009
:100258002F20640085194C292F202F20C6013B2010
:100268007008C4007108C500C6014408C70077209B
:100278002F2085160430FB008E30FC001230FD0064
:10028800FD0B4429FC0B4429FB0B44290000851273
:1002980064002F20C601952070088312BD007008E5
:1002A8001F3C03185829BD019012101290101730E6
:1002B8008E00FC308F000C10AD01AE01C401C501E9
:1002C800B201B301B401B50183160C140B178B17D7
:1002D800831210143C30C6002220FF30B100AF0159
:1002E800B001AB01AC01A401A501A201A301023038
:1002F800FB008630FC009930FD00FD0B8129FC0BCA
:100308008129FB0B812985160230FB008630FC0011
:100318009930FD00FD0B8E29FC0B8E29FB0B8E29D5
:1003280085126400A001A1013E08A9003F08AA00A7
:100338003E08C6003F08C7002408C8002508C900B1
:10034800A02071084102031DAB2970084002031860
:10035800B3292908A4002A08A500203085062F08FB
:10036800A7003008A8002D08AF002E08B0008C1C8C
:10037800BB29C6013B207008C4007108C5000330C2
:10038800C6003B207008AD007108AE000130A60021
:10039800C6013B207008B6007108B7000330C600DC
:1003A8003B207008A9007108AA0045083702031D00
:1003B800DF29440836020318E9293608C40037083B
:1003C800C5002908AD002A08AE002608033A03191B
:1003D800EF29A60ACC29AD0DAE0D2D10AD0DAE0D31
:1003E8002D103E08A9003F08AA003E08C6003F0895
:1003F800C7002008C8002108C900A0207108033CD4
:10040800031D082A7008E83C03180F2A2908A000D1
:100418002A08A10064003E08A9003F08AA003E0877
:10042800C6003F08C7002B08C8002C08C900A02038
:1004380000307102031D222A193070020318252A80
:1004480098292908AB002A08AC003208B9003308FB
:10045800BA003408BB003508BC002D08F0002E088F
:10046800F100F201F3014408F4004508F500F60133
:10047800F701CD207008B2007108B3007208B4000B
:100488007308B5004508003C031D4C2A44083D028A
:1004980003187E2A35083C06031D5C2A34083B06EF
:1004A800031D5C2A33083A06031D5C2A3208390604
:1004B800031D632AF430C0000130C10098293C08AC
:1004C8003502031D712A3B083402031D712A3A08BC
:1004D8003302031D712A390832020318792A2C3095
:1004E800C0000130C100B1097D2A2C30C0000130A4
:1004F800C1008D2AC830C000C1013C30C60022208E
:10050800FF30B100B201B301B401B501C401C501A6
:10051800982968207008B80031080319A12AC83042
:10052800380203189C2AB80A3808C6002220A02AD4
:10053800C830C6002220B101AF2A38080A3C031887
:10054800AA2AB8033808C6002220AF2A0A30C600F3
:0A0558002220FF30B1009829B02ADC
:02400E00DC0FC5
:00000001FF
