:020000000D29C8
:10000800FF00030E8301C0000A08C1008A010C1C0E
:100018001528FC308F0017308E000C10BE0A03190B
:10002800BF0A41088A00400E8300FF0E7F0E0900B8
:0C00380007308312FD00FD0B1F2808009C
:1000440083124308F000F00CF01370089300431877
:0C0054002D2895122E2895161512080074
:1000600082308312FC00DD30FD00FD0B3528FC0BD7
:08007000352800000000080023
:1000780083169C1C412800003C28831243088316E1
:100088009B008312440883169A009C131C150B08C6
:10009800F0008B1355309D00AA309D009C14F01B76
:0C00A80057288B1358288B171C110800D8
:1000B400C33083129F05F0309F05BF309F05F03099
:1000C40083169F0483129F174308F000F00D7010ED
:1000D400F00D701070089F041F141C209F149F1CA7
:1000E4007528000071281F101E08F100F001831606
:1000F4001E0870048312C4007108C5000030C504D2
:0A0104004408F0004508F10008006F
:10010E00831203132230FC00F801F901FA01FB01FE
:10011E00FC030319BD280310FB0CFA0CF90CF80CA8
:10012E00F30CF20CF10CF00C031C8F28FC030319DA
:10013E00AF287408F80775080318750FF9077608C5
:10014E000318760FFA0777080318770FFB07932823
:10015E007408F80775080318750FF9077608031861
:0E016E00760FFA0777080318770FFB070800D3
:10017C008312430883169B009C131C141A08F1006D
:06018C007108F0000800FC
:10019200831246084402031DD0284508430203186F
:1001A200E9284508FF3CF0004608031C013EFF3CDD
:1001B200F1004308F00744080318013EF1077008F4
:1001C200013EF20000300318013E7107F300F128EE
:1001D20045084302F2004608031C013E4402F300B4
:0A01E2007208F0007308F100080035
:1001EC0083121308F000F00D70107008F200951ACD
:0E01FC0001297210022972147208F000080026
:10020A0019308312FD00FD0B0829000000000800C8
:10021A00073083129900093083169F0005140516CA
:10022A008514851283121F179F17920183160515CD
:10023A00633092000F30831295000C30C3002220E5
:10024A008316051183128C10121564008512C830AA
:10025A00BC00BD01BE01BF01C201302030206400D4
:10026A008519532930203020C3015A207008BA005A
:10027A007108BB00C3013A08C4003C20302085162F
:10028A000430FB008E30FC001230FD00FD0B4B29C0
:10029A00FC0B4B29FB0B4B29000085126400302014
:1002AA00C301BE2070088312C20070081F3C0318E5
:1002BA005F29C20190121012901017308E00FC3084
:1002CA008F000C10B301B401BA01BB01AF01B00138
:1002DA00B101B20183160C140B178B178312101479
:1002EA001430C3002220FF30AE00A401A501A201F0
:1002FA00A3010230FB008630FC009930FD00FD0BA3
:10030A008429FC0B8429FB0B842985160230FB0007
:10031A008630FC009930FD00FD0B9129FC0B9129D8
:10032A00FB0B912985126400A001A1013E08AC00D3
:10033A003F08AD003E08C3003F08C4002208C500BC
:10034A002308C600C92071083D02031DAE297008A2
:10035A003C020318B6292C08A2002D08A30020305D
:10036A0085068519C5290D30FB00AF30FC00B63073
:10037A00FD00FD0BBE29FC0BBE29FB0BBE290000AC
:10038A008C1CC5290521C3015A207008BA007108BE
:10039A00BB000330C3005A207008AA007108AB00E2
:1003AA007008B3007108B400B30DB40D3310B30D67
:1003BA00B40D33103E08AC003F08AD003E08C30040
:1003CA003F08C4002008C5002108C600C920033020
:1003DA007102031DF229E8307002031CF9292C0866
:1003EA00A0002D08A10064003E08AC003F08AD0043
:1003FA003E08C3003F08C4002408C5002508C600FB
:10040A00C92000307102031D0C2A643070020318DF
:10041A000F2A9B292C08A4002D08A5002F08A60046
:10042A003008A7003108A8003208A9003308F000F4
:10043A003408F100F201F3013A08F4003B08F50030
:10044A00F601F70187207008AF007108B000720842
:10045A00B1007308B2003A08F1003B08F200F30158
:10046A00F4012A08F1072B0803182B0FF2072C08AE
:10047A0003182C0FF3072D0803182D0FF407710822
:10048A00F5007208F6007308F7007408F800F50D15
:10049A00F60DF70DF80D7510F50DF60DF70DF80DB3
:1004AA0075107508F1007608F2007708F3007808ED
:1004BA00F400F10DF20DF30DF40D71107108B50091
:1004CA007208B6007308B7007408B80000307402E6
:1004DA00031D792A00307302031D792A0030720243
:1004EA00031D792A323071020318802A3230B5008E
:1004FA00B601B701B8013208003C031D8E2A310843
:10050A00003C031D8E2A3008273C031D8E2A2F0823
:10051A00103C0318C82A0730F0002F08F1003008F1
:10052A00F2003108F3003208F40070080319A42A13
:10053A00F40CF30CF20CF10CF413FF3E9B2A38086E
:10054A007402031DB22A37087302031DB22A360841
:10055A007202031DB22A350871020318C82A07302D
:10056A00F0002F08B5003008B6003108B70032088D
:10057A00B80070080319C82AB80CB70CB60CB50C29
:10058A00B813FF3EBF2A02304207F1003B08003C85
:10059A00031DD12A3A0871020318582B320829067A
:1005AA00031DE12A31082806031DE12A300827061F
:1005BA00031DE12A2F082606031DE82AF430BC0091
:1005CA000130BD009B2929083202031DF62A28089A
:1005DA003102031DF62A27083002031DF62A2608CF
:1005EA002F020318282B2608F1002708F2002808F2
:1005FA00F3002908F4002F08F1023008031C300F19
:10060A00F2023108031C310FF3023208031C320FC5
:10061A00F40238087402031D1C2B37087302031DE9
:10062A001C2B36087202031D1C2B35087102031895
:10063A00232BF430BC000130BD009B299630BC004E
:10064A00BD01AE09572B2F08F1003008F20031081E
:10065A00F3003208F4002608F1022708031C270FCA
:10066A00F2022808031C280FF3022908031C290F89
:10067A00F40238087402031D4C2B37087302031D59
:10068A004C2B36087202031D4C2B350871020318D5
:10069A00532BF430BC000130BD009B292C30BC0028
:1006AA000130BD00632B9630BC00BD01FF30AE00A7
:1006BA00AF01B001B101B201BA01BB01F620700865
:1006CA00B9002E080319772B5A3039020318722BF6
:1006DA00B90A3908C3002220762B5A30C3002220D7
:1006EA00AE01852B39080C3C0318802BB903390855
:1006FA00C3002220852B0C30C3002220FF30AE001D
:04070A009B29862B76
:02400E00DC0FC5
:00000001FF
