:020000000429D1
:10000800FF00030E8301C6000A08C5008A010C1C04
:100018001528FC308F0017308E000C10BE0A03190B
:10002800BF0A45088A00460E8300FF0E7F0E0900AE
:0C00380007308312FD00FD0B1F2808009C
:1000440083124708F000F00CF0137008930047186F
:0A0054002D2895122E28951608009D
:10005E0082308312FC00DD30FD00FD0B3428FC0BDA
:08006E00342800000000080026
:10007600C33083129F05F0309F05BF309F05F030D7
:1000860083169F0483129F174708F000F00D701027
:10009600F00D701070089F041F141C209F149F1CE5
:1000A6005628000052281F101E08F100F001831682
:1000B6001E0870048312C8007108C9000030C90404
:0A00C6004808F0004908F1000800A6
:1000D00083121308F000F00D70107008F200951AEA
:0E00E00073287210742872147208F000080061
:1000EE0083169C1C7C2800007728831247088316F1
:1000FE009B008312480883169A009C131C150B084C
:10010E00F0008B1355309D00AA309D009C14F01BFF
:0C011E0092288B1393288B171C110800EB
:10012A008312470883169B009C131C141A08F100BB
:06013A007108F00008004E
:1001400083124A084802031DA728490847020318DA
:10015000C0284908FF3CF0004A08031C013EFF3C50
:10016000F1004708F00748080318013EF10770083E
:10017000013EF20000300318013E7107F300C82869
:1001800049084702F2004A08031C013E4802F300F6
:0A0190007208F0007308F100080087
:10019A00831203132230FC00F801F901FA01FB0172
:1001AA00FC03031903290310FB0CFA0CF90CF80CD5
:1001BA00F30CF20CF10CF00C031CD528FC03031908
:1001CA00F5287408F80775080318750FF9077608F3
:1001DA000318760FFA0777080318770FFB07D92851
:1001EA007408F80775080318750FF90776080318D5
:0E01FA00760FFA0777080318770FFB07080047
:10020800073083129900093083169F0005140516DC
:100218008514851283121F179F17920183160515DF
:1002280063309200831215120F309500C701222007
:100238008C10121564008C1C1F298316051183125B
:100248008512C830C000C101BE01BF01C2012F2004
:100258002F20640085194C292F202F20C7013B200F
:100268007008C3007108C400C7014308C80077209C
:100278002F2085160430FB008E30FC001230FD0064
:10028800FD0B4429FC0B4429FB0B44290000851273
:1002980064002F20C701952070088312C2007008DF
:1002A8001F3C03185829C2019012101290101730E1
:1002B8008E00FC308F000C10AC01AD01C301C401ED
:1002C800AE01AF01B001B10183160C140B178B17E7
:1002D800831210143C30C7002220FF30B600B4014E
:1002E800B501B201B301A401A501A201A301023025
:1002F800FB008630FC009930FD00FD0B8129FC0BCA
:100308008129FB0B812985160230FB008630FC0011
:100318009930FD00FD0B8E29FC0B8E29FB0B8E29D5
:1003280085126400A001A101A6013E08AA003F08A9
:10033800AB003E08C7003F08C8002408C9002508CC
:10034800CA00A02071084102031DAC2970084002B0
:100358000318B4292A08A4002B08A5002030850614
:100368003408A8003508A9002C08B4002D08B500E9
:100378008C1CBC29C7013B207008C3007108C4004D
:100388000330C7003B207008AC007108AD00013095
:10039800A700C7013B207008BC007108BD000330EE
:1003A800C7003B207008AA007108AB0044083D0252
:1003B800031DE02943083C020318EA293C08C3004E
:1003C8003D08C4002A08AC002B08AD002708033AF2
:1003D8000319F029A70ACD29AC0DAD0D2C10AC0DD1
:1003E800AD0D2C103E08AA003F08AB003E08C70020
:1003F8003F08C8002008C9002108CA00A0207108C9
:10040800033C031D092A7008E83C0318102A2A082F
:10041800A0002B08A10064003E08AA003F08AB001A
:100428003E08C7003F08C8003208C9003308CA00A0
:10043800A02000307102031D232A1930700203180E
:10044800262A99292A08B2002B08B3002E08B800DA
:100458002F08B9003008BA003108BB002C08F0009A
:100468002D08F100F201F3014308F4004408F500F7
:10047800F601F701CD207008AE007108AF007208D0
:10048800B0007308B1004408003C031D4D2A43081E
:1004980042020318802AA60131083B06031D5E2A82
:1004A80030083A06031D5E2A2F083906031D5E2A06
:1004B8002E083806031D652AF430C0000130C1003B
:1004C80099293B083102031D732A3A083002031D9B
:1004D800732A39082F02031D732A38082E020318BD
:1004E8007B2A2C30C0000130C100B6097F2A2C308D
:1004F800C0000130C100972AC830C000C1010A30CD
:10050800260203188B2A3C30C70022208E2A0A3084
:10051800C7002220FF30B600AE01AF01B001B10123
:10052800C301C401992968207008B7003608031967
:10053800AB2AC83037020318A62AB70A3708C700FB
:100548002220AA2AC830C7002220B601B92A3708B3
:100558000A3C0318B42AB7033708C7002220B92A6F
:0E0568000A30C7002220FF30B6009929BA2AB7
:02400E00DC0FC5
:00000001FF
