:02000000B9281D
:10000800FF00030E8301BE000A08BF008A010C1C12
:100018001528F8308F0030308E000C10BC0A0319F8
:10002800BD0A3F088A003E0E8300FF0E7F0E0900BE
:0C00380007308312FD00FD0B1F2808009C
:1000440082308312FC00DD30FD00FD0B2728FC0B01
:0800540027280000000008004D
:10005C00C33083129F05F0309F05F03083169F0448
:10006C0083129F174208F000F00D7010F00D701005
:10007C0070089F041F141C209F149F1C472800000D
:10008C0043281F101E08F100F00183161E0870048F
:10009C008312C3007108C4000030C4044308F0008C
:0600AC004408F100080009
:1000B200831203132230FC00F801F901FA01FB015B
:1000C200FC0303198F280310FB0CFA0CF90CF80C33
:1000D200F30CF20CF10CF00C031C6128FC03031965
:1000E20081287408F80775080318750FF907760850
:1000F2000318760FFA0777080318770FFB076528AE
:100102007408F80775080318750FF90776080318BD
:0E011200760FFA0777080318770FFB0708002F
:1001200083169C1C95280000902883124208831691
:100130009B008312430883169A009C131C150B081E
:10014000F0008B1355309D00AA309D009C14F01BCD
:0C015000AB288B13AC288B171C11080087
:10015C008312420883169B009C131C141A08F1008E
:06016C007108F00008001C
:10017200073083129900093083169F000514051673
:100182008514851283121F179F159F178316051555
:10019200653092000F308312950093018C10121576
:1001A20064008C1CD22883160511831285126430D8
:1001B200BA00BC01BD01BB012220222064008519C6
:1001C200FE2822202220C2012E207008C0007108C1
:1001D200C100C2014008C3009020222085160430CD
:1001E200FB008E30FC001230FD00FD0BF628FC0BEC
:1001F200F628FB0BF6280000851264002220C201BB
:10020200AE2070088312BB0070081F3C03180A2935
:10021200BB0190121012901030308E00F8308F0017
:100222000C10AB01AC01C001C101B001B101B201BE
:10023200B30183160C140B178B17831210140A3098
:100242009300FF30AF00AD01AE01A401A501A201F0
:10025200A301A001A10164000230FB008630FC0072
:100262009930FD00FD0B3329FC0B3329FB0B33299D
:1002720085160230FB008630FC009930FD00FD0B34
:100282004029FC0B4029FB0B4029851264003C08E5
:10029200A9003D08AA0022083C02F1002308031C21
:1002A200013E3D02F2007208003C031D5A2971080A
:1002B2003A02031862292908A2002A08A300203062
:1002C20085062D08A7002E08A8002B08AD002C08D3
:1002D200AE008C1C6A29C2012E207008C000710871
:1002E200C1000330C2002E207008AB007108AC00C0
:1002F200A601C2012E207008B4007108B5000330B7
:10030200C2002E207008A9007108AA007008AB076D
:1003120071080318013EAC07AC0CAB0CAC133508EA
:100322004102031D96293408400203189C2934080F
:10033200C0003508C1002608033A0319A229A60AFB
:100342007A29AB0DAC0D2B10AB0DAC0D2B103C086C
:10035200A9003D08AA0024083C02F1002508031C5C
:10036200013E3D02F20000307202031DBA290F3035
:1003720071020318BD29592A64002908A4002A0819
:10038200A5003008B6003108B7003208B8003308BB
:10039200B9002B08F0002C08F100F201F30140082B
:1003A200F4004108F500F601F70159207008B00089
:1003B2007108B1007208B2007308B3003C08A900CA
:1003C2003D08AA001308783C0318FF2920082902D7
:1003D200F1002108031C013E2A02F2007208083CC7
:1003E200031DF5297108CA3C0318FE292908A0003B
:1003F2002A08A1003B08C000C101032A2908A00065
:100402002A08A1004108003C031D092A40083B02BA
:100412000318352A33083906031D192A320838060B
:10042200031D192A31083706031D192A300836061A
:10043200031D1E2AFA30BA00592A39083302031D55
:100442002C2A38083202031D2C2A37083102031DD8
:100452002C2A360830020318322A9630BA00AF0925
:10046200342AC830BA00422A6430BA000A309300F3
:10047200FF30AF00B001B101B201B301C001C1014F
:10048200592A2F0803194F2AFA30130203184B2A4C
:10049200930A4E2AFA309300AF01592A13080A3CF4
:1004A2000318552A9303592A0A309300FF30AF00EC
:0404B20048295A2A51
:02400E00DC0FC5
:00000001FF
